{
  "_format": "hh-sol-artifact-1",
  "contractName": "KindlinkCampaign",
  "sourceName": "contracts/KindlinkCampaign.sol",
  "abi": [
    {
      "inputs": [
        {
          "internalType": "address",
          "name": "_platformWallet",
          "type": "address"
        }
      ],
      "stateMutability": "nonpayable",
      "type": "constructor"
    },
    {
      "inputs": [
        {
          "internalType": "address",
          "name": "owner",
          "type": "address"
        }
      ],
      "name": "OwnableInvalidOwner",
      "type": "error"
    },
    {
      "inputs": [
        {
          "internalType": "address",
          "name": "account",
          "type": "address"
        }
      ],
      "name": "OwnableUnauthorizedAccount",
      "type": "error"
    },
    {
      "inputs": [],
      "name": "ReentrancyGuardReentrantCall",
      "type": "error"
    },
    {
      "anonymous": false,
      "inputs": [
        {
          "indexed": true,
          "internalType": "bytes32",
          "name": "campaignKey",
          "type": "bytes32"
        },
        {
          "indexed": false,
          "internalType": "string",
          "name": "offchainId",
          "type": "string"
        },
        {
          "indexed": false,
          "internalType": "address",
          "name": "creator",
          "type": "address"
        },
        {
          "indexed": false,
          "internalType": "uint256",
          "name": "goalAmount",
          "type": "uint256"
        }
      ],
      "name": "CampaignCreated",
      "type": "event"
    },
    {
      "anonymous": false,
      "inputs": [
        {
          "indexed": true,
          "internalType": "bytes32",
          "name": "campaignKey",
          "type": "bytes32"
        }
      ],
      "name": "CampaignMarkedFailed",
      "type": "event"
    },
    {
      "anonymous": false,
      "inputs": [
        {
          "indexed": true,
          "internalType": "bytes32",
          "name": "campaignKey",
          "type": "bytes32"
        }
      ],
      "name": "CampaignMarkedSuccess",
      "type": "event"
    },
    {
      "anonymous": false,
      "inputs": [
        {
          "indexed": true,
          "internalType": "bytes32",
          "name": "campaignKey",
          "type": "bytes32"
        },
        {
          "indexed": false,
          "internalType": "address",
          "name": "donor",
          "type": "address"
        },
        {
          "indexed": false,
          "internalType": "uint256",
          "name": "amount",
          "type": "uint256"
        }
      ],
      "name": "Donated",
      "type": "event"
    },
    {
      "anonymous": false,
      "inputs": [
        {
          "indexed": true,
          "internalType": "address",
          "name": "previousOwner",
          "type": "address"
        },
        {
          "indexed": true,
          "internalType": "address",
          "name": "newOwner",
          "type": "address"
        }
      ],
      "name": "OwnershipTransferred",
      "type": "event"
    },
    {
      "anonymous": false,
      "inputs": [
        {
          "indexed": false,
          "internalType": "uint256",
          "name": "newFeeBps",
          "type": "uint256"
        }
      ],
      "name": "PlatformFeeUpdated",
      "type": "event"
    },
    {
      "anonymous": false,
      "inputs": [
        {
          "indexed": false,
          "internalType": "address",
          "name": "newWallet",
          "type": "address"
        }
      ],
      "name": "PlatformWalletUpdated",
      "type": "event"
    },
    {
      "anonymous": false,
      "inputs": [
        {
          "indexed": true,
          "internalType": "bytes32",
          "name": "campaignKey",
          "type": "bytes32"
        },
        {
          "indexed": false,
          "internalType": "address",
          "name": "donor",
          "type": "address"
        },
        {
          "indexed": false,
          "internalType": "uint256",
          "name": "amount",
          "type": "uint256"
        }
      ],
      "name": "RefundClaimed",
      "type": "event"
    },
    {
      "anonymous": false,
      "inputs": [
        {
          "indexed": true,
          "internalType": "bytes32",
          "name": "campaignKey",
          "type": "bytes32"
        },
        {
          "indexed": false,
          "internalType": "address",
          "name": "creator",
          "type": "address"
        },
        {
          "indexed": false,
          "internalType": "string",
          "name": "withdrawalRequestId",
          "type": "string"
        },
        {
          "indexed": false,
          "internalType": "uint256",
          "name": "netAmount",
          "type": "uint256"
        },
        {
          "indexed": false,
          "internalType": "uint256",
          "name": "fee",
          "type": "uint256"
        }
      ],
      "name": "WithdrawApproved",
      "type": "event"
    },
    {
      "inputs": [],
      "name": "FEE_DENOMINATOR",
      "outputs": [
        {
          "internalType": "uint256",
          "name": "",
          "type": "uint256"
        }
      ],
      "stateMutability": "view",
      "type": "function"
    },
    {
      "inputs": [
        {
          "internalType": "bytes32",
          "name": "campaignKey",
          "type": "bytes32"
        },
        {
          "internalType": "string",
          "name": "withdrawalRequestId",
          "type": "string"
        },
        {
          "internalType": "uint256",
          "name": "amountWei",
          "type": "uint256"
        }
      ],
      "name": "approveWithdraw",
      "outputs": [],
      "stateMutability": "nonpayable",
      "type": "function"
    },
    {
      "inputs": [
        {
          "internalType": "bytes32",
          "name": "campaignKey",
          "type": "bytes32"
        }
      ],
      "name": "claimRefund",
      "outputs": [],
      "stateMutability": "nonpayable",
      "type": "function"
    },
    {
      "inputs": [
        {
          "internalType": "string",
          "name": "offchainId",
          "type": "string"
        },
        {
          "internalType": "address",
          "name": "creator",
          "type": "address"
        },
        {
          "internalType": "uint256",
          "name": "goalAmount",
          "type": "uint256"
        }
      ],
      "name": "createCampaign",
      "outputs": [],
      "stateMutability": "nonpayable",
      "type": "function"
    },
    {
      "inputs": [
        {
          "internalType": "bytes32",
          "name": "campaignKey",
          "type": "bytes32"
        }
      ],
      "name": "donate",
      "outputs": [],
      "stateMutability": "payable",
      "type": "function"
    },
    {
      "inputs": [
        {
          "internalType": "bytes32",
          "name": "campaignKey",
          "type": "bytes32"
        }
      ],
      "name": "getCampaign",
      "outputs": [
        {
          "components": [
            {
              "internalType": "string",
              "name": "offchainId",
              "type": "string"
            },
            {
              "internalType": "address",
              "name": "creator",
              "type": "address"
            },
            {
              "internalType": "uint256",
              "name": "goalAmount",
              "type": "uint256"
            },
            {
              "internalType": "uint256",
              "name": "raisedAmount",
              "type": "uint256"
            },
            {
              "internalType": "uint256",
              "name": "withdrawnAmount",
              "type": "uint256"
            },
            {
              "internalType": "enum KindlinkCampaign.CampaignStatus",
              "name": "status",
              "type": "uint8"
            },
            {
              "internalType": "bool",
              "name": "exists",
              "type": "bool"
            }
          ],
          "internalType": "struct KindlinkCampaign.Campaign",
          "name": "",
          "type": "tuple"
        }
      ],
      "stateMutability": "view",
      "type": "function"
    },
    {
      "inputs": [
        {
          "internalType": "string",
          "name": "offchainId",
          "type": "string"
        }
      ],
      "name": "getCampaignKey",
      "outputs": [
        {
          "internalType": "bytes32",
          "name": "",
          "type": "bytes32"
        }
      ],
      "stateMutability": "pure",
      "type": "function"
    },
    {
      "inputs": [],
      "name": "getContractBalance",
      "outputs": [
        {
          "internalType": "uint256",
          "name": "",
          "type": "uint256"
        }
      ],
      "stateMutability": "view",
      "type": "function"
    },
    {
      "inputs": [
        {
          "internalType": "bytes32",
          "name": "campaignKey",
          "type": "bytes32"
        },
        {
          "internalType": "address",
          "name": "donor",
          "type": "address"
        }
      ],
      "name": "getDonation",
      "outputs": [
        {
          "internalType": "uint256",
          "name": "",
          "type": "uint256"
        }
      ],
      "stateMutability": "view",
      "type": "function"
    },
    {
      "inputs": [
        {
          "internalType": "bytes32",
          "name": "campaignKey",
          "type": "bytes32"
        }
      ],
      "name": "markFailed",
      "outputs": [],
      "stateMutability": "nonpayable",
      "type": "function"
    },
    {
      "inputs": [
        {
          "internalType": "bytes32",
          "name": "campaignKey",
          "type": "bytes32"
        }
      ],
      "name": "markSuccess",
      "outputs": [],
      "stateMutability": "nonpayable",
      "type": "function"
    },
    {
      "inputs": [],
      "name": "owner",
      "outputs": [
        {
          "internalType": "address",
          "name": "",
          "type": "address"
        }
      ],
      "stateMutability": "view",
      "type": "function"
    },
    {
      "inputs": [],
      "name": "platformFeeBps",
      "outputs": [
        {
          "internalType": "uint256",
          "name": "",
          "type": "uint256"
        }
      ],
      "stateMutability": "view",
      "type": "function"
    },
    {
      "inputs": [],
      "name": "platformWallet",
      "outputs": [
        {
          "internalType": "address",
          "name": "",
          "type": "address"
        }
      ],
      "stateMutability": "view",
      "type": "function"
    },
    {
      "inputs": [],
      "name": "renounceOwnership",
      "outputs": [],
      "stateMutability": "nonpayable",
      "type": "function"
    },
    {
      "inputs": [
        {
          "internalType": "uint256",
          "name": "newFeeBps",
          "type": "uint256"
        }
      ],
      "name": "setPlatformFee",
      "outputs": [],
      "stateMutability": "nonpayable",
      "type": "function"
    },
    {
      "inputs": [
        {
          "internalType": "address",
          "name": "newWallet",
          "type": "address"
        }
      ],
      "name": "setPlatformWallet",
      "outputs": [],
      "stateMutability": "nonpayable",
      "type": "function"
    },
    {
      "inputs": [
        {
          "internalType": "address",
          "name": "newOwner",
          "type": "address"
        }
      ],
      "name": "transferOwnership",
      "outputs": [],
      "stateMutability": "nonpayable",
      "type": "function"
    }
  ],
  "bytecode": "0x608060405260c86002553480156200001657600080fd5b5060405162001aaa38038062001aaa83398101604081905262000039916200015f565b60017f9b779b17422d0df92223018b32b4d1fa46e071723d6817e2486d003becc55f005533806200008557604051631e4fbdf760e01b8152600060048201526024015b60405180910390fd5b62000090816200010f565b506001600160a01b038116620000e95760405162461bcd60e51b815260206004820152601760248201527f496e76616c696420706c6174666f726d2077616c6c657400000000000000000060448201526064016200007c565b600180546001600160a01b0319166001600160a01b039290921691909117905562000191565b600080546001600160a01b038381166001600160a01b0319831681178455604051919092169283917f8be0079c531659141344cd1fd0a4f28419497f9722a3daafe3b4186f6b6457e09190a35050565b6000602082840312156200017257600080fd5b81516001600160a01b03811681146200018a57600080fd5b9392505050565b61190980620001a16000396000f3fe6080604052600436106101095760003560e01c80638efc1d5a11610095578063cabe045211610064578063cabe0452146102a6578063d73792a9146102d3578063f2fde38b146102e9578063fa2af9da14610309578063fa9565231461032957600080fd5b80638efc1d5a1461023357806390a4246c14610253578063925ed1a114610273578063c37067fa1461029357600080fd5b806370cde4b5116100dc57806370cde4b51461018c578063715018a6146101ac57806371de2ffc146101c15780638831e9cf146101e15780638da5cb5b1461020157600080fd5b806312e8e2c31461010e57806322dcd13e146101305780634eeed0b1146101595780636f9fb98a14610179575b600080fd5b34801561011a57600080fd5b5061012e610129366004611358565b610349565b005b34801561013c57600080fd5b5061014660025481565b6040519081526020015b60405180910390f35b34801561016557600080fd5b5061014661017436600461138d565b6103dc565b34801561018557600080fd5b5047610146565b34801561019857600080fd5b5061012e6101a7366004611402565b610406565b3480156101b857600080fd5b5061012e6106a4565b3480156101cd57600080fd5b5061012e6101dc366004611358565b6106b8565b3480156101ed57600080fd5b5061012e6101fc36600461145e565b610951565b34801561020d57600080fd5b506000546001600160a01b03165b6040516001600160a01b039091168152602001610150565b34801561023f57600080fd5b5061014661024e366004611480565b6109ee565b34801561025f57600080fd5b5061012e61026e366004611358565b610a21565b34801561027f57600080fd5b5061012e61028e366004611358565b610b0b565b61012e6102a1366004611358565b610bf5565b3480156102b257600080fd5b506102c66102c1366004611358565b610d94565b60405161015091906114fa565b3480156102df57600080fd5b5061014661271081565b3480156102f557600080fd5b5061012e61030436600461145e565b610ec5565b34801561031557600080fd5b5060015461021b906001600160a01b031681565b34801561033557600080fd5b5061012e6103443660046115b1565b610f00565b610351611238565b6103e88111156103a05760405162461bcd60e51b81526020600482015260156024820152744665652063616e6e6f74206578636565642031302560581b60448201526064015b60405180910390fd5b60028190556040518181527f45610d581145924dd7090a5017e5f2b1d6f42213bb2e95707ff86846bbfcb1ca906020015b60405180910390a150565b60008281526004602090815260408083206001600160a01b03851684529091529020545b92915050565b61040e611238565b6001600160a01b0382166104565760405162461bcd60e51b815260206004820152600f60248201526e24b73b30b634b21031b932b0ba37b960891b6044820152606401610397565b600081116104995760405162461bcd60e51b815260206004820152601060248201526f0476f616c206d757374206265203e20360841b6044820152606401610397565b600084846040516020016104ae929190611604565b60408051808303601f19018152918152815160209283012060008181526003909352912060050154909150610100900460ff161561052e5760405162461bcd60e51b815260206004820152601760248201527f43616d706169676e20616c7265616479206578697374730000000000000000006044820152606401610397565b6040518060e0016040528086868080601f01602080910402602001604051908101604052809392919081815260200183838082843760009201829052509385525050506001600160a01b038616602083015260408201859052606082018190526080820181905260a090910190815260016020918201526000838152600390915260409020815181906105c190826116b5565b5060208201518160010160006101000a8154816001600160a01b0302191690836001600160a01b0316021790555060408201518160020155606082015181600301556080820151816004015560a08201518160050160006101000a81548160ff02191690836003811115610637576106376114c2565b021790555060c08201518160050160016101000a81548160ff021916908315150217905550905050807ff06e7326656aba6aa1b1843cb7fecf5ba35e15233a4c34c11deb25205faa7cd386868686604051610695949392919061179e565b60405180910390a25050505050565b6106ac611238565b6106b66000611265565b565b6106c06112b5565b6000818152600360205260409020600501548190610100900460ff166106f85760405162461bcd60e51b8152600401610397906117ce565b60008281526003602052604090206002600582015460ff166003811115610721576107216114c2565b1461076e5760405162461bcd60e51b815260206004820152601760248201527f43616d706169676e20686173206e6f74206661696c65640000000000000000006044820152606401610397565b6000838152600460209081526040808320338452909152902054806107cd5760405162461bcd60e51b8152602060048201526015602482015274139bc8191bdb985d1a5bdb881d1bc81c99599d5b99605a1b6044820152606401610397565b478111156108325760405162461bcd60e51b815260206004820152602c60248201527f436f6e74726163742068617320696e73756666696369656e742062616c616e6360448201526b1948199bdc881c99599d5b9960a21b6064820152608401610397565b6000848152600460209081526040808320338452909152812081905560038301805483929061086290849061181b565b9091555050604051600090339083908381818185875af1925050503d80600081146108a9576040519150601f19603f3d011682016040523d82523d6000602084013e6108ae565b606091505b50509050806108f85760405162461bcd60e51b81526020600482015260166024820152751499599d5b99081d1c985b9cd9995c8819985a5b195960521b6044820152606401610397565b604080513381526020810184905286917fe950d47bcc1a745a8ef1d8b86486b400a99681910425d126eb1a006d61f341b2910160405180910390a25050505061094e60016000805160206118b483398151915255565b50565b610959611238565b6001600160a01b0381166109a05760405162461bcd60e51b815260206004820152600e60248201526d125b9d985b1a59081dd85b1b195d60921b6044820152606401610397565b600180546001600160a01b0319166001600160a01b0383169081179091556040519081527f73238e3ae0a71b401b31ae67204506d074de41bd5c084082fba9b64b1c7fa28f906020016103d1565b60008282604051602001610a03929190611604565b60405160208183030381529060405280519060200120905092915050565b610a29611238565b6000818152600360205260409020600501548190610100900460ff16610a615760405162461bcd60e51b8152600401610397906117ce565b600082815260036020526040812090600582015460ff166003811115610a8957610a896114c2565b14610acc5760405162461bcd60e51b815260206004820152601360248201527243616d706169676e206e6f742061637469766560681b6044820152606401610397565b60058101805460ff1916600117905560405183907fd1b50b0d43d649e3a6767e7c84768291a4cf97ba29aee533e51de73e9641402090600090a2505050565b610b13611238565b6000818152600360205260409020600501548190610100900460ff16610b4b5760405162461bcd60e51b8152600401610397906117ce565b600082815260036020526040812090600582015460ff166003811115610b7357610b736114c2565b14610bb65760405162461bcd60e51b815260206004820152601360248201527243616d706169676e206e6f742061637469766560681b6044820152606401610397565b60058101805460ff1916600217905560405183907f195e176f66cd48dca9fc216184e6bf711639d2206de8b534e129aaa386c7703a90600090a2505050565b610bfd6112b5565b6000818152600360205260409020600501548190610100900460ff16610c355760405162461bcd60e51b8152600401610397906117ce565b600082815260036020526040812090600582015460ff166003811115610c5d57610c5d6114c2565b14610caa5760405162461bcd60e51b815260206004820181905260248201527f43616d706169676e206e6f7420616363657074696e6720646f6e6174696f6e736044820152606401610397565b60003411610cfa5760405162461bcd60e51b815260206004820152601760248201527f4d7573742073656e6420504f4c20746f20646f6e6174650000000000000000006044820152606401610397565b34816003016000828254610d0e919061182e565b9091555050600083815260046020908152604080832033845290915281208054349290610d3c90849061182e565b90915550506040805133815234602082015284917f54c25c010675db5311551a80c00f48292c63e3d9072b58265bc8340584ef5af4910160405180910390a2505061094e60016000805160206118b483398151915255565b610d9c611301565b60008281526003602052604090819020815160e08101909252805482908290610dc49061162a565b80601f0160208091040260200160405190810160405280929190818152602001828054610df09061162a565b8015610e3d5780601f10610e1257610100808354040283529160200191610e3d565b820191906000526020600020905b815481529060010190602001808311610e2057829003601f168201915b505050918352505060018201546001600160a01b0316602082015260028201546040820152600380830154606083015260048301546080830152600583015460a09092019160ff1690811115610e9557610e956114c2565b6003811115610ea657610ea66114c2565b815260059190910154610100900460ff16151560209091015292915050565b610ecd611238565b6001600160a01b038116610ef757604051631e4fbdf760e01b815260006004820152602401610397565b61094e81611265565b610f08611238565b610f106112b5565b6000848152600360205260409020600501548490610100900460ff16610f485760405162461bcd60e51b8152600401610397906117ce565b600085815260036020526040812090600582015460ff166003811115610f7057610f706114c2565b1480610f9457506001600582015460ff166003811115610f9257610f926114c2565b145b610feb5760405162461bcd60e51b815260206004820152602260248201527f43616d706169676e206e6f7420696e20776974686472617761626c6520737461604482015261746560f01b6064820152608401610397565b600083116110305760405162461bcd60e51b81526020600482015260126024820152710416d6f756e74206d757374206265203e20360741b6044820152606401610397565b600081600401548260030154611046919061181b565b9050808411156110985760405162461bcd60e51b815260206004820152601d60248201527f496e73756666696369656e74206f6e2d636861696e2062616c616e63650000006044820152606401610397565b6000612710600254866110ab9190611841565b6110b59190611858565b905060006110c3828761181b565b9050858460040160008282546110d9919061182e565b9091555060019050600585015460ff1660038111156110fa576110fa6114c2565b14801561110e575083600301548460040154145b156111235760058401805460ff191660031790555b6001546040516000916001600160a01b03169088908381818185875af1925050503d8060008114611170576040519150601f19603f3d011682016040523d82523d6000602084013e611175565b606091505b50509050806111c65760405162461bcd60e51b815260206004820152601b60248201527f5472616e7366657220746f20706c6174666f726d206661696c656400000000006044820152606401610397565b60018501546040518b917f0e28dfaf504e5b47923097b78da2e50758b5420f8e531ca88bf8a1a0946c85399161120d916001600160a01b0316908d908d9088908a9061187a565b60405180910390a250505050505061123260016000805160206118b483398151915255565b50505050565b6000546001600160a01b031633146106b65760405163118cdaa760e01b8152336004820152602401610397565b600080546001600160a01b038381166001600160a01b0319831681178455604051919092169283917f8be0079c531659141344cd1fd0a4f28419497f9722a3daafe3b4186f6b6457e09190a35050565b6112bd6112d1565b60026000805160206118b483398151915255565b6000805160206118b4833981519152546002036106b657604051633ee5aeb560e01b815260040160405180910390fd5b6040518060e001604052806060815260200160006001600160a01b031681526020016000815260200160008152602001600081526020016000600381111561134b5761134b6114c2565b8152600060209091015290565b60006020828403121561136a57600080fd5b5035919050565b80356001600160a01b038116811461138857600080fd5b919050565b600080604083850312156113a057600080fd5b823591506113b060208401611371565b90509250929050565b60008083601f8401126113cb57600080fd5b50813567ffffffffffffffff8111156113e357600080fd5b6020830191508360208285010111156113fb57600080fd5b9250929050565b6000806000806060858703121561141857600080fd5b843567ffffffffffffffff81111561142f57600080fd5b61143b878288016113b9565b909550935061144e905060208601611371565b9396929550929360400135925050565b60006020828403121561147057600080fd5b61147982611371565b9392505050565b6000806020838503121561149357600080fd5b823567ffffffffffffffff8111156114aa57600080fd5b6114b6858286016113b9565b90969095509350505050565b634e487b7160e01b600052602160045260246000fd5b600481106114f657634e487b7160e01b600052602160045260246000fd5b9052565b60006020808352835160e0602085015280518061010086015260005b818110156115335782810184015186820161012001528301611516565b50610120925060008382870101526020860151915061155d60408601836001600160a01b03169052565b6040860151606086015260608601516080860152608086015160a086015260a0860151915061158f60c08601836114d8565b60c086015180151560e08701529150601f01601f191693909301019392505050565b600080600080606085870312156115c757600080fd5b84359350602085013567ffffffffffffffff8111156115e557600080fd5b6115f1878288016113b9565b9598909750949560400135949350505050565b8183823760009101908152919050565b634e487b7160e01b600052604160045260246000fd5b600181811c9082168061163e57607f821691505b60208210810361165e57634e487b7160e01b600052602260045260246000fd5b50919050565b601f8211156116b0576000816000526020600020601f850160051c8101602086101561168d5750805b601f850160051c820191505b818110156116ac57828155600101611699565b5050505b505050565b815167ffffffffffffffff8111156116cf576116cf611614565b6116e3816116dd845461162a565b84611664565b602080601f83116001811461171857600084156117005750858301515b600019600386901b1c1916600185901b1785556116ac565b600085815260208120601f198616915b8281101561174757888601518255948401946001909101908401611728565b50858210156117655787850151600019600388901b60f8161c191681555b5050505050600190811b01905550565b81835281816020850137506000828201602090810191909152601f909101601f19169091010190565b6060815260006117b2606083018688611775565b6001600160a01b03949094166020830152506040015292915050565b60208082526017908201527f43616d706169676e20646f6573206e6f74206578697374000000000000000000604082015260600190565b634e487b7160e01b600052601160045260246000fd5b8181038181111561040057610400611805565b8082018082111561040057610400611805565b808202811582820484141761040057610400611805565b60008261187557634e487b7160e01b600052601260045260246000fd5b500490565b6001600160a01b038616815260806020820181905260009061189f9083018688611775565b60408301949094525060600152939250505056fe9b779b17422d0df92223018b32b4d1fa46e071723d6817e2486d003becc55f00a264697066735822122000247f1aec9cf49c723926a292c2f04ca87fd8f9bc9b45d4f852b093e352415664736f6c63430008180033",
  "linkReferences": {},
  "deployedLinkReferences": {}
}