{
  "_format": "hh-sol-artifact-1",
  "contractName": "KindlinkCampaign",
  "sourceName": "contracts/KindlinkCampaign.sol",
  "abi": [
    {
      "inputs": [
        {
          "internalType": "address",
          "name": "_platformWallet",
          "type": "address"
        }
      ],
      "stateMutability": "nonpayable",
      "type": "constructor"
    },
    {
      "inputs": [
        {
          "internalType": "address",
          "name": "owner",
          "type": "address"
        }
      ],
      "name": "OwnableInvalidOwner",
      "type": "error"
    },
    {
      "inputs": [
        {
          "internalType": "address",
          "name": "account",
          "type": "address"
        }
      ],
      "name": "OwnableUnauthorizedAccount",
      "type": "error"
    },
    {
      "inputs": [],
      "name": "ReentrancyGuardReentrantCall",
      "type": "error"
    },
    {
      "anonymous": false,
      "inputs": [
        {
          "indexed": true,
          "internalType": "bytes32",
          "name": "campaignKey",
          "type": "bytes32"
        },
        {
          "indexed": false,
          "internalType": "string",
          "name": "offchainId",
          "type": "string"
        },
        {
          "indexed": false,
          "internalType": "address",
          "name": "creator",
          "type": "address"
        },
        {
          "indexed": false,
          "internalType": "uint256",
          "name": "goalAmount",
          "type": "uint256"
        }
      ],
      "name": "CampaignCreated",
      "type": "event"
    },
    {
      "anonymous": false,
      "inputs": [
        {
          "indexed": true,
          "internalType": "bytes32",
          "name": "campaignKey",
          "type": "bytes32"
        }
      ],
      "name": "CampaignMarkedFailed",
      "type": "event"
    },
    {
      "anonymous": false,
      "inputs": [
        {
          "indexed": true,
          "internalType": "bytes32",
          "name": "campaignKey",
          "type": "bytes32"
        }
      ],
      "name": "CampaignMarkedSuccess",
      "type": "event"
    },
    {
      "anonymous": false,
      "inputs": [
        {
          "indexed": true,
          "internalType": "bytes32",
          "name": "campaignKey",
          "type": "bytes32"
        },
        {
          "indexed": false,
          "internalType": "address",
          "name": "donor",
          "type": "address"
        },
        {
          "indexed": false,
          "internalType": "uint256",
          "name": "amount",
          "type": "uint256"
        }
      ],
      "name": "Donated",
      "type": "event"
    },
    {
      "anonymous": false,
      "inputs": [
        {
          "indexed": true,
          "internalType": "address",
          "name": "previousOwner",
          "type": "address"
        },
        {
          "indexed": true,
          "internalType": "address",
          "name": "newOwner",
          "type": "address"
        }
      ],
      "name": "OwnershipTransferred",
      "type": "event"
    },
    {
      "anonymous": false,
      "inputs": [
        {
          "indexed": false,
          "internalType": "uint256",
          "name": "newFeeBps",
          "type": "uint256"
        }
      ],
      "name": "PlatformFeeUpdated",
      "type": "event"
    },
    {
      "anonymous": false,
      "inputs": [
        {
          "indexed": false,
          "internalType": "address",
          "name": "newWallet",
          "type": "address"
        }
      ],
      "name": "PlatformWalletUpdated",
      "type": "event"
    },
    {
      "anonymous": false,
      "inputs": [
        {
          "indexed": true,
          "internalType": "bytes32",
          "name": "campaignKey",
          "type": "bytes32"
        },
        {
          "indexed": false,
          "internalType": "address",
          "name": "donor",
          "type": "address"
        },
        {
          "indexed": false,
          "internalType": "uint256",
          "name": "amount",
          "type": "uint256"
        }
      ],
      "name": "RefundClaimed",
      "type": "event"
    },
    {
      "anonymous": false,
      "inputs": [
        {
          "indexed": true,
          "internalType": "bytes32",
          "name": "campaignKey",
          "type": "bytes32"
        },
        {
          "indexed": false,
          "internalType": "address",
          "name": "creator",
          "type": "address"
        },
        {
          "indexed": false,
          "internalType": "uint256",
          "name": "amount",
          "type": "uint256"
        },
        {
          "indexed": false,
          "internalType": "uint256",
          "name": "fee",
          "type": "uint256"
        }
      ],
      "name": "WithdrawApproved",
      "type": "event"
    },
    {
      "anonymous": false,
      "inputs": [
        {
          "indexed": true,
          "internalType": "bytes32",
          "name": "campaignKey",
          "type": "bytes32"
        },
        {
          "indexed": false,
          "internalType": "address",
          "name": "creator",
          "type": "address"
        }
      ],
      "name": "WithdrawRequested",
      "type": "event"
    },
    {
      "inputs": [],
      "name": "FEE_DENOMINATOR",
      "outputs": [
        {
          "internalType": "uint256",
          "name": "",
          "type": "uint256"
        }
      ],
      "stateMutability": "view",
      "type": "function"
    },
    {
      "inputs": [
        {
          "internalType": "bytes32",
          "name": "campaignKey",
          "type": "bytes32"
        }
      ],
      "name": "approveWithdraw",
      "outputs": [],
      "stateMutability": "nonpayable",
      "type": "function"
    },
    {
      "inputs": [
        {
          "internalType": "bytes32",
          "name": "campaignKey",
          "type": "bytes32"
        }
      ],
      "name": "claimRefund",
      "outputs": [],
      "stateMutability": "nonpayable",
      "type": "function"
    },
    {
      "inputs": [
        {
          "internalType": "string",
          "name": "offchainId",
          "type": "string"
        },
        {
          "internalType": "address",
          "name": "creator",
          "type": "address"
        },
        {
          "internalType": "uint256",
          "name": "goalAmount",
          "type": "uint256"
        }
      ],
      "name": "createCampaign",
      "outputs": [],
      "stateMutability": "nonpayable",
      "type": "function"
    },
    {
      "inputs": [
        {
          "internalType": "bytes32",
          "name": "campaignKey",
          "type": "bytes32"
        }
      ],
      "name": "donate",
      "outputs": [],
      "stateMutability": "payable",
      "type": "function"
    },
    {
      "inputs": [
        {
          "internalType": "bytes32",
          "name": "campaignKey",
          "type": "bytes32"
        }
      ],
      "name": "getCampaign",
      "outputs": [
        {
          "components": [
            {
              "internalType": "string",
              "name": "offchainId",
              "type": "string"
            },
            {
              "internalType": "address",
              "name": "creator",
              "type": "address"
            },
            {
              "internalType": "uint256",
              "name": "goalAmount",
              "type": "uint256"
            },
            {
              "internalType": "uint256",
              "name": "raisedAmount",
              "type": "uint256"
            },
            {
              "internalType": "enum KindlinkCampaign.CampaignStatus",
              "name": "status",
              "type": "uint8"
            },
            {
              "internalType": "bool",
              "name": "withdrawRequested",
              "type": "bool"
            },
            {
              "internalType": "bool",
              "name": "exists",
              "type": "bool"
            }
          ],
          "internalType": "struct KindlinkCampaign.Campaign",
          "name": "",
          "type": "tuple"
        }
      ],
      "stateMutability": "view",
      "type": "function"
    },
    {
      "inputs": [
        {
          "internalType": "string",
          "name": "offchainId",
          "type": "string"
        }
      ],
      "name": "getCampaignKey",
      "outputs": [
        {
          "internalType": "bytes32",
          "name": "",
          "type": "bytes32"
        }
      ],
      "stateMutability": "pure",
      "type": "function"
    },
    {
      "inputs": [],
      "name": "getContractBalance",
      "outputs": [
        {
          "internalType": "uint256",
          "name": "",
          "type": "uint256"
        }
      ],
      "stateMutability": "view",
      "type": "function"
    },
    {
      "inputs": [
        {
          "internalType": "bytes32",
          "name": "campaignKey",
          "type": "bytes32"
        },
        {
          "internalType": "address",
          "name": "donor",
          "type": "address"
        }
      ],
      "name": "getDonation",
      "outputs": [
        {
          "internalType": "uint256",
          "name": "",
          "type": "uint256"
        }
      ],
      "stateMutability": "view",
      "type": "function"
    },
    {
      "inputs": [
        {
          "internalType": "bytes32",
          "name": "campaignKey",
          "type": "bytes32"
        }
      ],
      "name": "markFailed",
      "outputs": [],
      "stateMutability": "nonpayable",
      "type": "function"
    },
    {
      "inputs": [
        {
          "internalType": "bytes32",
          "name": "campaignKey",
          "type": "bytes32"
        }
      ],
      "name": "markSuccess",
      "outputs": [],
      "stateMutability": "nonpayable",
      "type": "function"
    },
    {
      "inputs": [],
      "name": "owner",
      "outputs": [
        {
          "internalType": "address",
          "name": "",
          "type": "address"
        }
      ],
      "stateMutability": "view",
      "type": "function"
    },
    {
      "inputs": [],
      "name": "platformFeeBps",
      "outputs": [
        {
          "internalType": "uint256",
          "name": "",
          "type": "uint256"
        }
      ],
      "stateMutability": "view",
      "type": "function"
    },
    {
      "inputs": [],
      "name": "platformWallet",
      "outputs": [
        {
          "internalType": "address",
          "name": "",
          "type": "address"
        }
      ],
      "stateMutability": "view",
      "type": "function"
    },
    {
      "inputs": [],
      "name": "renounceOwnership",
      "outputs": [],
      "stateMutability": "nonpayable",
      "type": "function"
    },
    {
      "inputs": [
        {
          "internalType": "bytes32",
          "name": "campaignKey",
          "type": "bytes32"
        }
      ],
      "name": "requestWithdraw",
      "outputs": [],
      "stateMutability": "nonpayable",
      "type": "function"
    },
    {
      "inputs": [
        {
          "internalType": "uint256",
          "name": "newFeeBps",
          "type": "uint256"
        }
      ],
      "name": "setPlatformFee",
      "outputs": [],
      "stateMutability": "nonpayable",
      "type": "function"
    },
    {
      "inputs": [
        {
          "internalType": "address",
          "name": "newWallet",
          "type": "address"
        }
      ],
      "name": "setPlatformWallet",
      "outputs": [],
      "stateMutability": "nonpayable",
      "type": "function"
    },
    {
      "inputs": [
        {
          "internalType": "address",
          "name": "newOwner",
          "type": "address"
        }
      ],
      "name": "transferOwnership",
      "outputs": [],
      "stateMutability": "nonpayable",
      "type": "function"
    }
  ],
  "bytecode": "0x608060405260c86002553480156200001657600080fd5b5060405162001bcf38038062001bcf83398101604081905262000039916200015f565b60017f9b779b17422d0df92223018b32b4d1fa46e071723d6817e2486d003becc55f005533806200008557604051631e4fbdf760e01b8152600060048201526024015b60405180910390fd5b62000090816200010f565b506001600160a01b038116620000e95760405162461bcd60e51b815260206004820152601760248201527f496e76616c696420706c6174666f726d2077616c6c657400000000000000000060448201526064016200007c565b600180546001600160a01b0319166001600160a01b039290921691909117905562000191565b600080546001600160a01b038381166001600160a01b0319831681178455604051919092169283917f8be0079c531659141344cd1fd0a4f28419497f9722a3daafe3b4186f6b6457e09190a35050565b6000602082840312156200017257600080fd5b81516001600160a01b03811681146200018a57600080fd5b9392505050565b611a2e80620001a16000396000f3fe6080604052600436106101145760003560e01c80638831e9cf116100a0578063c37067fa11610064578063c37067fa146102de578063cabe0452146102f1578063d73792a91461031e578063f2fde38b14610334578063fa2af9da1461035457600080fd5b80638831e9cf1461022c5780638da5cb5b1461024c5780638efc1d5a1461027e57806390a4246c1461029e578063925ed1a1146102be57600080fd5b80634eeed0b1116100e75780634eeed0b1146101a45780636f9fb98a146101c457806370cde4b5146101d7578063715018a6146101f757806371de2ffc1461020c57600080fd5b806312e8e2c3146101195780631fad83381461013b5780632191b2b21461015b57806322dcd13e1461017b575b600080fd5b34801561012557600080fd5b50610139610134366004611514565b610374565b005b34801561014757600080fd5b50610139610156366004611514565b610407565b34801561016757600080fd5b50610139610176366004611514565b6105c1565b34801561018757600080fd5b5061019160025481565b6040519081526020015b60405180910390f35b3480156101b057600080fd5b506101916101bf366004611549565b610923565b3480156101d057600080fd5b5047610191565b3480156101e357600080fd5b506101396101f23660046115be565b61094d565b34801561020357600080fd5b50610139610bf6565b34801561021857600080fd5b50610139610227366004611514565b610c0a565b34801561023857600080fd5b5061013961024736600461161a565b610e3c565b34801561025857600080fd5b506000546001600160a01b03165b6040516001600160a01b03909116815260200161019b565b34801561028a57600080fd5b5061019161029936600461163c565b610ed9565b3480156102aa57600080fd5b506101396102b9366004611514565b610f0c565b3480156102ca57600080fd5b506101396102d9366004611514565b610ff7565b6101396102ec366004611514565b6110e2565b3480156102fd57600080fd5b5061031161030c366004611514565b611282565b60405161019b91906116b6565b34801561032a57600080fd5b5061019161271081565b34801561034057600080fd5b5061013961034f36600461161a565b6113b9565b34801561036057600080fd5b50600154610266906001600160a01b031681565b61037c6113f4565b6103e88111156103cb5760405162461bcd60e51b81526020600482015260156024820152744665652063616e6e6f74206578636565642031302560581b60448201526064015b60405180910390fd5b60028190556040518181527f45610d581145924dd7090a5017e5f2b1d6f42213bb2e95707ff86846bbfcb1ca906020015b60405180910390a150565b600081815260036020526040902060040154819062010000900460ff166104405760405162461bcd60e51b81526004016103c290611772565b60008281526003602052604090206001600482015460ff1660038111156104695761046961167e565b146104b05760405162461bcd60e51b815260206004820152601760248201527610d85b5c185a59db881b9bdd081cdd58d8d95cdcd99d5b604a1b60448201526064016103c2565b60018101546001600160a01b0316331461051c5760405162461bcd60e51b815260206004820152602760248201527f4f6e6c79207468652063726561746f722063616e2072657175657374207769746044820152661a191c985dd85b60ca1b60648201526084016103c2565b6004810154610100900460ff16156105765760405162461bcd60e51b815260206004820152601c60248201527f5769746864726177616c20616c7265616479207265717565737465640000000060448201526064016103c2565b60048101805461ff00191661010017905560405133815283907f0e3e90af4fd393b8486d674b4f90f884aea927619dbfb8458b4a732d9f7694f09060200160405180910390a2505050565b6105c96113f4565b6105d1611421565b600081815260036020526040902060040154819062010000900460ff1661060a5760405162461bcd60e51b81526004016103c290611772565b60008281526003602052604090206001600482015460ff1660038111156106335761063361167e565b1461067a5760405162461bcd60e51b815260206004820152601760248201527610d85b5c185a59db881b9bdd081cdd58d8d95cdcd99d5b604a1b60448201526064016103c2565b6004810154610100900460ff166106df5760405162461bcd60e51b8152602060048201526024808201527f43726561746f7220686173206e6f742072657175657374656420776974686472604482015263185dd85b60e21b60648201526084016103c2565b6003810154806107275760405162461bcd60e51b81526020600482015260136024820152724e6f7468696e6720746f20776974686472617760681b60448201526064016103c2565b60006127106002548361073a91906117bf565b61074491906117d6565b9050600061075282846117f8565b60048501805460ff191660039081179091556000908601559050811561080d576001546040516000916001600160a01b03169084908381818185875af1925050503d80600081146107bf576040519150601f19603f3d011682016040523d82523d6000602084013e6107c4565b606091505b505090508061080b5760405162461bcd60e51b8152602060048201526013602482015272119959481d1c985b9cd9995c8819985a5b1959606a1b60448201526064016103c2565b505b60018401546040516000916001600160a01b03169083908381818185875af1925050503d806000811461085c576040519150601f19603f3d011682016040523d82523d6000602084013e610861565b606091505b50509050806108b25760405162461bcd60e51b815260206004820152601760248201527f43726561746f72207472616e73666572206661696c656400000000000000000060448201526064016103c2565b6001850154604080516001600160a01b03909216825260208201849052810184905287907f92251e6294bd6f0d1515101e8d05dc1c6b66dd0c8d7ee2891570a78135287ef39060600160405180910390a250505050505061092060016000805160206119d983398151915255565b50565b60008281526004602090815260408083206001600160a01b03851684529091529020545b92915050565b6109556113f4565b6001600160a01b03821661099d5760405162461bcd60e51b815260206004820152600f60248201526e24b73b30b634b21031b932b0ba37b960891b60448201526064016103c2565b600081116109e05760405162461bcd60e51b815260206004820152601060248201526f0476f616c206d757374206265203e20360841b60448201526064016103c2565b600084846040516020016109f592919061180b565b60408051808303601f1901815291815281516020928301206000818152600390935291206004015490915062010000900460ff1615610a765760405162461bcd60e51b815260206004820152601760248201527f43616d706169676e20616c72656164792065786973747300000000000000000060448201526064016103c2565b6040518060e0016040528086868080601f01602080910402602001604051908101604052809392919081815260200183838082843760009201829052509385525050506001600160a01b038616602083015260408201859052606082018190526080909101908152600060208083018290526001604093840152848252600390522081518190610b0690826118bc565b5060208201518160010160006101000a8154816001600160a01b0302191690836001600160a01b03160217905550604082015181600201556060820151816003015560808201518160040160006101000a81548160ff02191690836003811115610b7257610b7261167e565b021790555060a08201516004909101805460c0909301511515620100000262ff000019921515610100029290921662ffff00199093169290921717905560405181907ff06e7326656aba6aa1b1843cb7fecf5ba35e15233a4c34c11deb25205faa7cd390610be790889088908890889061197c565b60405180910390a25050505050565b610bfe6113f4565b610c08600061143d565b565b610c12611421565b600081815260036020526040902060040154819062010000900460ff16610c4b5760405162461bcd60e51b81526004016103c290611772565b60008281526003602052604090206002600482015460ff166003811115610c7457610c7461167e565b14610cc15760405162461bcd60e51b815260206004820152601760248201527f43616d706169676e20686173206e6f74206661696c656400000000000000000060448201526064016103c2565b600083815260046020908152604080832033845290915290205480610d205760405162461bcd60e51b8152602060048201526015602482015274139bc8191bdb985d1a5bdb881d1bc81c99599d5b99605a1b60448201526064016103c2565b60008481526004602090815260408083203384529091528120819055600383018054839290610d509084906117f8565b9091555050604051600090339083908381818185875af1925050503d8060008114610d97576040519150601f19603f3d011682016040523d82523d6000602084013e610d9c565b606091505b5050905080610de65760405162461bcd60e51b81526020600482015260166024820152751499599d5b99081d1c985b9cd9995c8819985a5b195960521b60448201526064016103c2565b604080513381526020810184905286917fe950d47bcc1a745a8ef1d8b86486b400a99681910425d126eb1a006d61f341b2910160405180910390a25050505061092060016000805160206119d983398151915255565b610e446113f4565b6001600160a01b038116610e8b5760405162461bcd60e51b815260206004820152600e60248201526d125b9d985b1a59081dd85b1b195d60921b60448201526064016103c2565b600180546001600160a01b0319166001600160a01b0383169081179091556040519081527f73238e3ae0a71b401b31ae67204506d074de41bd5c084082fba9b64b1c7fa28f906020016103fc565b60008282604051602001610eee92919061180b565b60405160208183030381529060405280519060200120905092915050565b610f146113f4565b600081815260036020526040902060040154819062010000900460ff16610f4d5760405162461bcd60e51b81526004016103c290611772565b600082815260036020526040812090600482015460ff166003811115610f7557610f7561167e565b14610fb85760405162461bcd60e51b815260206004820152601360248201527243616d706169676e206e6f742061637469766560681b60448201526064016103c2565b60048101805460ff1916600117905560405183907fd1b50b0d43d649e3a6767e7c84768291a4cf97ba29aee533e51de73e9641402090600090a2505050565b610fff6113f4565b600081815260036020526040902060040154819062010000900460ff166110385760405162461bcd60e51b81526004016103c290611772565b600082815260036020526040812090600482015460ff1660038111156110605761106061167e565b146110a35760405162461bcd60e51b815260206004820152601360248201527243616d706169676e206e6f742061637469766560681b60448201526064016103c2565b60048101805460ff1916600217905560405183907f195e176f66cd48dca9fc216184e6bf711639d2206de8b534e129aaa386c7703a90600090a2505050565b6110ea611421565b600081815260036020526040902060040154819062010000900460ff166111235760405162461bcd60e51b81526004016103c290611772565b600082815260036020526040812090600482015460ff16600381111561114b5761114b61167e565b146111985760405162461bcd60e51b815260206004820181905260248201527f43616d706169676e206e6f7420616363657074696e6720646f6e6174696f6e7360448201526064016103c2565b600034116111e85760405162461bcd60e51b815260206004820152601760248201527f4d7573742073656e6420504f4c20746f20646f6e61746500000000000000000060448201526064016103c2565b348160030160008282546111fc91906119c5565b909155505060008381526004602090815260408083203384529091528120805434929061122a9084906119c5565b90915550506040805133815234602082015284917f54c25c010675db5311551a80c00f48292c63e3d9072b58265bc8340584ef5af4910160405180910390a2505061092060016000805160206119d983398151915255565b61128a6114bd565b60008281526003602052604090819020815160e081019092528054829082906112b290611831565b80601f01602080910402602001604051908101604052809291908181526020018280546112de90611831565b801561132b5780601f106113005761010080835404028352916020019161132b565b820191906000526020600020905b81548152906001019060200180831161130e57829003601f168201915b505050918352505060018201546001600160a01b03166020820152600282015460408201526003808301546060830152600483015460809092019160ff16908111156113795761137961167e565b600381111561138a5761138a61167e565b81526004919091015460ff61010082048116151560208401526201000090910416151560409091015292915050565b6113c16113f4565b6001600160a01b0381166113eb57604051631e4fbdf760e01b8152600060048201526024016103c2565b6109208161143d565b6000546001600160a01b03163314610c085760405163118cdaa760e01b81523360048201526024016103c2565b61142961148d565b60026000805160206119d983398151915255565b600080546001600160a01b038381166001600160a01b0319831681178455604051919092169283917f8be0079c531659141344cd1fd0a4f28419497f9722a3daafe3b4186f6b6457e09190a35050565b6000805160206119d983398151915254600203610c0857604051633ee5aeb560e01b815260040160405180910390fd5b6040518060e001604052806060815260200160006001600160a01b031681526020016000815260200160008152602001600060038111156115005761150061167e565b815260006020820181905260409091015290565b60006020828403121561152657600080fd5b5035919050565b80356001600160a01b038116811461154457600080fd5b919050565b6000806040838503121561155c57600080fd5b8235915061156c6020840161152d565b90509250929050565b60008083601f84011261158757600080fd5b50813567ffffffffffffffff81111561159f57600080fd5b6020830191508360208285010111156115b757600080fd5b9250929050565b600080600080606085870312156115d457600080fd5b843567ffffffffffffffff8111156115eb57600080fd5b6115f787828801611575565b909550935061160a90506020860161152d565b9396929550929360400135925050565b60006020828403121561162c57600080fd5b6116358261152d565b9392505050565b6000806020838503121561164f57600080fd5b823567ffffffffffffffff81111561166657600080fd5b61167285828601611575565b90969095509350505050565b634e487b7160e01b600052602160045260246000fd5b600481106116b257634e487b7160e01b600052602160045260246000fd5b9052565b60006020808352835160e0602085015280518061010086015260005b818110156116ef57828101840151868201610120015283016116d2565b50610120925060008382870101526020860151915061171960408601836001600160a01b03169052565b60408601516060860152606086015160808601526080860151915061174160a0860183611694565b60a086015180151560c0870152915060c086015180151560e08701529150601f01601f191693909301019392505050565b60208082526017908201527f43616d706169676e20646f6573206e6f74206578697374000000000000000000604082015260600190565b634e487b7160e01b600052601160045260246000fd5b8082028115828204841417610947576109476117a9565b6000826117f357634e487b7160e01b600052601260045260246000fd5b500490565b81810381811115610947576109476117a9565b8183823760009101908152919050565b634e487b7160e01b600052604160045260246000fd5b600181811c9082168061184557607f821691505b60208210810361186557634e487b7160e01b600052602260045260246000fd5b50919050565b601f8211156118b7576000816000526020600020601f850160051c810160208610156118945750805b601f850160051c820191505b818110156118b3578281556001016118a0565b5050505b505050565b815167ffffffffffffffff8111156118d6576118d661181b565b6118ea816118e48454611831565b8461186b565b602080601f83116001811461191f57600084156119075750858301515b600019600386901b1c1916600185901b1785556118b3565b600085815260208120601f198616915b8281101561194e5788860151825594840194600190910190840161192f565b508582101561196c5787850151600019600388901b60f8161c191681555b5050505050600190811b01905550565b6060815283606082015283856080830137600060808583018101919091526001600160a01b039390931660208201526040810191909152601f909201601f191690910101919050565b80820180821115610947576109476117a956fe9b779b17422d0df92223018b32b4d1fa46e071723d6817e2486d003becc55f00a2646970667358221220d08e2b4abaf17ad6ed8d8fe1f05e6803931e8357581d57063592cf5fbe25d26464736f6c63430008180033",
  "linkReferences": {},
  "deployedLinkReferences": {}
}